{
  "transactions": [
    {
      "hash": "0xf3b72ba8b522e117888854c6df9119c017a54390c8ff3079210d741a8752ddac",
      "transactionType": "CALL",
      "contractName": null,
      "contractAddress": "0xf478f8dedebe67cc095693a9d6778deb3fb67ffe",
      "function": "mint(address,uint256)",
      "arguments": [
        "0xe8153Afbe4739D4477C1fF86a26Ab9085C4eDC69",
        "30000000000000000000000000000000000000000"
      ],
      "transaction": {
        "from": "0xe8153afbe4739d4477c1ff86a26ab9085c4edc69",
        "to": "0xf478f8dedebe67cc095693a9d6778deb3fb67ffe",
        "gas": "0xfae1",
        "value": "0x0",
        "input": "0x40c10f19000000000000000000000000e8153afbe4739d4477c1ff86a26ab9085c4edc6900000000000000000000000000000058297dd54a15ee3f032de0230000000000",
        "nonce": "0x3a0",
        "chainId": "0xaa36a7"
      },
      "additionalContracts": [],
      "isFixedGasLimit": false
    }
  ],
  "receipts": [
    {
      "status": "0x1",
      "cumulativeGasUsed": "0xab8b",
      "logs": [
        {
          "address": "0xf478f8dedebe67cc095693a9d6778deb3fb67ffe",
          "topics": [
            "0xddf252ad1be2c89b69c2b068fc378daa952ba7f163c4a11628f55a4df523b3ef",
            "0x0000000000000000000000000000000000000000000000000000000000000000",
            "0x000000000000000000000000e8153afbe4739d4477c1ff86a26ab9085c4edc69"
          ],
          "data": "0x00000000000000000000000000000058297dd54a15ee3f032de0230000000000",
          "blockHash": "0x4f6289032de672ccf9a3812b6eab3275de56e841b92d7bd3aeaa76256df21c91",
          "blockNumber": "0x7530c5",
          "blockTimestamp": "0x67aa20ba",
          "transactionHash": "0xf3b72ba8b522e117888854c6df9119c017a54390c8ff3079210d741a8752ddac",
          "transactionIndex": "0x0",
          "logIndex": "0x0",
          "removed": false
        }
      ],
      "logsBloom": "0x00000000000000000000000000000000000000000000000000000000000000000000000080000000000000000000000000000000000000000200000000000000000000000000004000000008000000000000000000000000000010000000000000000000020000000000000000000800000000000000000000000010000000000000000000000002000000000000000000000000000000000000000000000000000000000000000000000000000000000000000000000000200000000000000000000002000000000000000000000000000000000000000000000000000020000000000000000000000000000000000000000000000000000000000000000000",
      "type": "0x2",
      "transactionHash": "0xf3b72ba8b522e117888854c6df9119c017a54390c8ff3079210d741a8752ddac",
      "transactionIndex": "0x0",
      "blockHash": "0x4f6289032de672ccf9a3812b6eab3275de56e841b92d7bd3aeaa76256df21c91",
      "blockNumber": "0x7530c5",
      "gasUsed": "0xab8b",
      "effectiveGasPrice": "0xd28758a44",
      "blobGasPrice": "0x1",
      "from": "0xe8153afbe4739d4477c1ff86a26ab9085c4edc69",
      "to": "0xf478f8dedebe67cc095693a9d6778deb3fb67ffe",
      "contractAddress": null
    }
  ],
  "libraries": [],
  "pending": [],
  "returns": {},
  "timestamp": 1739202763,
  "chain": 11155111,
  "commit": "24b709b"
}