{
  "transactions": [
    {
      "hash": "0x7149f061c80262b7680acc4fcf6b16a15e0bf99e111f2c4564868199c81afd3b",
      "transactionType": "CALL",
      "contractName": null,
      "contractAddress": "0xf478f8dedebe67cc095693a9d6778deb3fb67ffe",
      "function": "mint(address,uint256)",
      "arguments": [
        "0xe8153Afbe4739D4477C1fF86a26Ab9085C4eDC69",
        "30000000000000000000000000000"
      ],
      "transaction": {
        "from": "0xe8153afbe4739d4477c1ff86a26ab9085c4edc69",
        "to": "0xf478f8dedebe67cc095693a9d6778deb3fb67ffe",
        "gas": "0xecbf",
        "value": "0x0",
        "input": "0x40c10f19000000000000000000000000e8153afbe4739d4477c1ff86a26ab9085c4edc69000000000000000000000000000000000000000060ef6b1aba6f072330000000",
        "nonce": "0x39f",
        "chainId": "0xaa36a7"
      },
      "additionalContracts": [],
      "isFixedGasLimit": false
    }
  ],
  "receipts": [
    {
      "status": "0x1",
      "cumulativeGasUsed": "0xab67",
      "logs": [
        {
          "address": "0xf478f8dedebe67cc095693a9d6778deb3fb67ffe",
          "topics": [
            "0xddf252ad1be2c89b69c2b068fc378daa952ba7f163c4a11628f55a4df523b3ef",
            "0x0000000000000000000000000000000000000000000000000000000000000000",
            "0x000000000000000000000000e8153afbe4739d4477c1ff86a26ab9085c4edc69"
          ],
          "data": "0x000000000000000000000000000000000000000060ef6b1aba6f072330000000",
          "blockHash": "0xfc0444fdc312b326cf8b712e21fc26f4c214eaaedbb4d8886dd68958ea0cb59d",
          "blockNumber": "0x7530c4",
          "blockTimestamp": "0x67aa1f85",
          "transactionHash": "0x7149f061c80262b7680acc4fcf6b16a15e0bf99e111f2c4564868199c81afd3b",
          "transactionIndex": "0x0",
          "logIndex": "0x0",
          "removed": false
        }
      ],
      "logsBloom": "0x00000000000000000000000000000000000000000000000000000000000000000000000080000000000000000000000000000000000000000200000000000000000000000000004000000008000000000000000000000000000010000000000000000000020000000000000000000800000000000000000000000010000000000000000000000002000000000000000000000000000000000000000000000000000000000000000000000000000000000000000000000000200000000000000000000002000000000000000000000000000000000000000000000000000020000000000000000000000000000000000000000000000000000000000000000000",
      "type": "0x2",
      "transactionHash": "0x7149f061c80262b7680acc4fcf6b16a15e0bf99e111f2c4564868199c81afd3b",
      "transactionIndex": "0x0",
      "blockHash": "0xfc0444fdc312b326cf8b712e21fc26f4c214eaaedbb4d8886dd68958ea0cb59d",
      "blockNumber": "0x7530c4",
      "gasUsed": "0xab67",
      "effectiveGasPrice": "0xf082d9be4",
      "blobGasPrice": "0x1",
      "from": "0xe8153afbe4739d4477c1ff86a26ab9085c4edc69",
      "to": "0xf478f8dedebe67cc095693a9d6778deb3fb67ffe",
      "contractAddress": null
    }
  ],
  "libraries": [],
  "pending": [],
  "returns": {},
  "timestamp": 1739202454,
  "chain": 11155111,
  "commit": "24b709b"
}