{
  "transactions": [
    {
      "hash": "0xe138d14184bb23ad2e988138666453f8faa3987018fdc8b122cc5c3fdeb3174c",
      "transactionType": "CALL",
      "contractName": null,
      "contractAddress": "0xf478f8dedebe67cc095693a9d6778deb3fb67ffe",
      "function": "mint(address,uint256)",
      "arguments": [
        "0xe8153Afbe4739D4477C1fF86a26Ab9085C4eDC69",
        "500000000000000000000000000"
      ],
      "transaction": {
        "from": "0xe8153afbe4739d4477c1ff86a26ab9085c4edc69",
        "to": "0xf478f8dedebe67cc095693a9d6778deb3fb67ffe",
        "gas": "0xecbf",
        "value": "0x0",
        "input": "0x40c10f19000000000000000000000000e8153afbe4739d4477c1ff86a26ab9085c4edc690000000000000000000000000000000000000000019d971e4fe8401e74000000",
        "nonce": "0x39b",
        "chainId": "0xaa36a7"
      },
      "additionalContracts": [],
      "isFixedGasLimit": false
    }
  ],
  "receipts": [
    {
      "status": "0x1",
      "cumulativeGasUsed": "0xab67",
      "logs": [
        {
          "address": "0xf478f8dedebe67cc095693a9d6778deb3fb67ffe",
          "topics": [
            "0xddf252ad1be2c89b69c2b068fc378daa952ba7f163c4a11628f55a4df523b3ef",
            "0x0000000000000000000000000000000000000000000000000000000000000000",
            "0x000000000000000000000000e8153afbe4739d4477c1ff86a26ab9085c4edc69"
          ],
          "data": "0x0000000000000000000000000000000000000000019d971e4fe8401e74000000",
          "blockHash": "0x0f5bdba9dcf9bc25027eaf8845f691b6644de827ca7deb1096df2a3ac129746d",
          "blockNumber": "0x753173",
          "blockTimestamp": "0x67aa2444",
          "transactionHash": "0xe138d14184bb23ad2e988138666453f8faa3987018fdc8b122cc5c3fdeb3174c",
          "transactionIndex": "0x0",
          "logIndex": "0x0",
          "removed": false
        }
      ],
      "logsBloom": "0x00000000000000000000000000000000000000000000000000000000000000000000000080000000000000000000000000000000000000000200000000000000000000000000004000000008000000000000000000000000000010000000000000000000020000000000000000000800000000000000000000000010000000000000000000000002000000000000000000000000000000000000000000000000000000000000000000000000000000000000000000000000200000000000000000000002000000000000000000000000000000000000000000000000000020000000000000000000000000000000000000000000000000000000000000000000",
      "type": "0x2",
      "transactionHash": "0xe138d14184bb23ad2e988138666453f8faa3987018fdc8b122cc5c3fdeb3174c",
      "transactionIndex": "0x0",
      "blockHash": "0x0f5bdba9dcf9bc25027eaf8845f691b6644de827ca7deb1096df2a3ac129746d",
      "blockNumber": "0x753173",
      "gasUsed": "0xab67",
      "effectiveGasPrice": "0xe075ac2a5",
      "blobGasPrice": "0x1",
      "from": "0xe8153afbe4739d4477c1ff86a26ab9085c4edc69",
      "to": "0xf478f8dedebe67cc095693a9d6778deb3fb67ffe",
      "contractAddress": null
    }
  ],
  "libraries": [],
  "pending": [],
  "returns": {},
  "timestamp": 1739203664,
  "chain": 11155111,
  "commit": "24b709b"
}