{
  "transactions": [
    {
      "hash": "0x3fd98c6a43f6bcb3e2539c435e2fe2fa3d8aa9952023742cad5df7ecfca308d0",
      "transactionType": "CALL",
      "contractName": null,
      "contractAddress": "0xf478f8dedebe67cc095693a9d6778deb3fb67ffe",
      "function": "mint(address,uint256)",
      "arguments": [
        "0xe8153Afbe4739D4477C1fF86a26Ab9085C4eDC69",
        "5000000000000000000000000"
      ],
      "transaction": {
        "from": "0xe8153afbe4739d4477c1ff86a26ab9085c4edc69",
        "to": "0xf478f8dedebe67cc095693a9d6778deb3fb67ffe",
        "gas": "0xec9d",
        "value": "0x0",
        "input": "0x40c10f19000000000000000000000000e8153afbe4739d4477c1ff86a26ab9085c4edc690000000000000000000000000000000000000000000422ca8b0a00a425000000",
        "nonce": "0x39a",
        "chainId": "0xaa36a7"
      },
      "additionalContracts": [],
      "isFixedGasLimit": false
    }
  ],
  "receipts": [
    {
      "status": "0x1",
      "cumulativeGasUsed": "0xab4f",
      "logs": [
        {
          "address": "0xf478f8dedebe67cc095693a9d6778deb3fb67ffe",
          "topics": [
            "0xddf252ad1be2c89b69c2b068fc378daa952ba7f163c4a11628f55a4df523b3ef",
            "0x0000000000000000000000000000000000000000000000000000000000000000",
            "0x000000000000000000000000e8153afbe4739d4477c1ff86a26ab9085c4edc69"
          ],
          "data": "0x0000000000000000000000000000000000000000000422ca8b0a00a425000000",
          "blockHash": "0x6a19c5d173b8fa70f2f3f61347e85544c97b00ca5912f1cee50d6c2703ebf429",
          "blockNumber": "0x753172",
          "blockTimestamp": "0x67aa2407",
          "transactionHash": "0x3fd98c6a43f6bcb3e2539c435e2fe2fa3d8aa9952023742cad5df7ecfca308d0",
          "transactionIndex": "0x0",
          "logIndex": "0x0",
          "removed": false
        }
      ],
      "logsBloom": "0x00000000000000000000000000000000000000000000000000000000000000000000000080000000000000000000000000000000000000000200000000000000000000000000004000000008000000000000000000000000000010000000000000000000020000000000000000000800000000000000000000000010000000000000000000000002000000000000000000000000000000000000000000000000000000000000000000000000000000000000000000000000200000000000000000000002000000000000000000000000000000000000000000000000000020000000000000000000000000000000000000000000000000000000000000000000",
      "type": "0x2",
      "transactionHash": "0x3fd98c6a43f6bcb3e2539c435e2fe2fa3d8aa9952023742cad5df7ecfca308d0",
      "transactionIndex": "0x0",
      "blockHash": "0x6a19c5d173b8fa70f2f3f61347e85544c97b00ca5912f1cee50d6c2703ebf429",
      "blockNumber": "0x753172",
      "gasUsed": "0xab4f",
      "effectiveGasPrice": "0xffe7badb6",
      "blobGasPrice": "0x1",
      "from": "0xe8153afbe4739d4477c1ff86a26ab9085c4edc69",
      "to": "0xf478f8dedebe67cc095693a9d6778deb3fb67ffe",
      "contractAddress": null
    }
  ],
  "libraries": [],
  "pending": [],
  "returns": {},
  "timestamp": 1739203603,
  "chain": 11155111,
  "commit": "24b709b"
}