{
  "transactions": [
    {
      "hash": "0x374a236eb57c50349663e40bc9918f1f70d260e0c8caacca050c3305b2c51828",
      "transactionType": "CALL",
      "contractName": null,
      "contractAddress": "0xf478f8dedebe67cc095693a9d6778deb3fb67ffe",
      "function": "mint(address,uint256)",
      "arguments": [
        "0xe8153Afbe4739D4477C1fF86a26Ab9085C4eDC69",
        "3000000000000000000000000"
      ],
      "transaction": {
        "from": "0xe8153afbe4739d4477c1ff86a26ab9085c4edc69",
        "to": "0xf478f8dedebe67cc095693a9d6778deb3fb67ffe",
        "gas": "0xfa9b",
        "value": "0x0",
        "input": "0x40c10f19000000000000000000000000e8153afbe4739d4477c1ff86a26ab9085c4edc69000000000000000000000000000000000000000000027b46536c66c8e3000000",
        "nonce": "0x39c",
        "chainId": "0xaa36a7"
      },
      "additionalContracts": [],
      "isFixedGasLimit": false
    }
  ],
  "receipts": [
    {
      "status": "0x1",
      "cumulativeGasUsed": "0xab5b",
      "logs": [
        {
          "address": "0xf478f8dedebe67cc095693a9d6778deb3fb67ffe",
          "topics": [
            "0xddf252ad1be2c89b69c2b068fc378daa952ba7f163c4a11628f55a4df523b3ef",
            "0x0000000000000000000000000000000000000000000000000000000000000000",
            "0x000000000000000000000000e8153afbe4739d4477c1ff86a26ab9085c4edc69"
          ],
          "data": "0x000000000000000000000000000000000000000000027b46536c66c8e3000000",
          "blockHash": "0x9dabb324f6e9a3f3383ba08a8336c6caf6dcfccaf44bddaca8c015115ba78546",
          "blockNumber": "0x7530c1",
          "blockTimestamp": "0x67aa1c03",
          "transactionHash": "0x374a236eb57c50349663e40bc9918f1f70d260e0c8caacca050c3305b2c51828",
          "transactionIndex": "0x0",
          "logIndex": "0x0",
          "removed": false
        }
      ],
      "logsBloom": "0x00000000000000000000000000000000000000000000000000000000000000000000000080000000000000000000000000000000000000000200000000000000000000000000004000000008000000000000000000000000000010000000000000000000020000000000000000000800000000000000000000000010000000000000000000000002000000000000000000000000000000000000000000000000000000000000000000000000000000000000000000000000200000000000000000000002000000000000000000000000000000000000000000000000000020000000000000000000000000000000000000000000000000000000000000000000",
      "type": "0x2",
      "transactionHash": "0x374a236eb57c50349663e40bc9918f1f70d260e0c8caacca050c3305b2c51828",
      "transactionIndex": "0x0",
      "blockHash": "0x9dabb324f6e9a3f3383ba08a8336c6caf6dcfccaf44bddaca8c015115ba78546",
      "blockNumber": "0x7530c1",
      "gasUsed": "0xab5b",
      "effectiveGasPrice": "0x1669b593eb",
      "blobGasPrice": "0x1",
      "from": "0xe8153afbe4739d4477c1ff86a26ab9085c4edc69",
      "to": "0xf478f8dedebe67cc095693a9d6778deb3fb67ffe",
      "contractAddress": null
    }
  ],
  "libraries": [],
  "pending": [],
  "returns": {},
  "timestamp": 1739201556,
  "chain": 11155111,
  "commit": "24b709b"
}